{
  "_format": "hh-sol-artifact-1",
  "contractName": "MusicNFTMarketplace",
  "sourceName": "src/backend/contracts/MusicNFTMarketplace.sol",
  "abi": [
    {
      "inputs": [
        {
          "internalType": "uint256",
          "name": "_royaltyFee",
          "type": "uint256"
        },
        {
          "internalType": "address",
          "name": "_artist",
          "type": "address"
        },
        {
          "internalType": "uint256[]",
          "name": "_prices",
          "type": "uint256[]"
        }
      ],
      "stateMutability": "payable",
      "type": "constructor"
    },
    {
      "anonymous": false,
      "inputs": [
        {
          "indexed": true,
          "internalType": "address",
          "name": "owner",
          "type": "address"
        },
        {
          "indexed": true,
          "internalType": "address",
          "name": "approved",
          "type": "address"
        },
        {
          "indexed": true,
          "internalType": "uint256",
          "name": "tokenId",
          "type": "uint256"
        }
      ],
      "name": "Approval",
      "type": "event"
    },
    {
      "anonymous": false,
      "inputs": [
        {
          "indexed": true,
          "internalType": "address",
          "name": "owner",
          "type": "address"
        },
        {
          "indexed": true,
          "internalType": "address",
          "name": "operator",
          "type": "address"
        },
        {
          "indexed": false,
          "internalType": "bool",
          "name": "approved",
          "type": "bool"
        }
      ],
      "name": "ApprovalForAll",
      "type": "event"
    },
    {
      "anonymous": false,
      "inputs": [
        {
          "indexed": true,
          "internalType": "address",
          "name": "previousOwner",
          "type": "address"
        },
        {
          "indexed": true,
          "internalType": "address",
          "name": "newOwner",
          "type": "address"
        }
      ],
      "name": "OwnershipTransferred",
      "type": "event"
    },
    {
      "anonymous": false,
      "inputs": [
        {
          "indexed": true,
          "internalType": "address",
          "name": "from",
          "type": "address"
        },
        {
          "indexed": true,
          "internalType": "address",
          "name": "to",
          "type": "address"
        },
        {
          "indexed": true,
          "internalType": "uint256",
          "name": "tokenId",
          "type": "uint256"
        }
      ],
      "name": "Transfer",
      "type": "event"
    },
    {
      "inputs": [
        {
          "internalType": "address",
          "name": "to",
          "type": "address"
        },
        {
          "internalType": "uint256",
          "name": "tokenId",
          "type": "uint256"
        }
      ],
      "name": "approve",
      "outputs": [],
      "stateMutability": "nonpayable",
      "type": "function"
    },
    {
      "inputs": [],
      "name": "artist",
      "outputs": [
        {
          "internalType": "address",
          "name": "",
          "type": "address"
        }
      ],
      "stateMutability": "view",
      "type": "function"
    },
    {
      "inputs": [
        {
          "internalType": "address",
          "name": "owner",
          "type": "address"
        }
      ],
      "name": "balanceOf",
      "outputs": [
        {
          "internalType": "uint256",
          "name": "",
          "type": "uint256"
        }
      ],
      "stateMutability": "view",
      "type": "function"
    },
    {
      "inputs": [],
      "name": "baseExtension",
      "outputs": [
        {
          "internalType": "string",
          "name": "",
          "type": "string"
        }
      ],
      "stateMutability": "view",
      "type": "function"
    },
    {
      "inputs": [],
      "name": "baseURI",
      "outputs": [
        {
          "internalType": "string",
          "name": "",
          "type": "string"
        }
      ],
      "stateMutability": "view",
      "type": "function"
    },
    {
      "inputs": [
        {
          "internalType": "uint256",
          "name": "tokenId",
          "type": "uint256"
        }
      ],
      "name": "getApproved",
      "outputs": [
        {
          "internalType": "address",
          "name": "",
          "type": "address"
        }
      ],
      "stateMutability": "view",
      "type": "function"
    },
    {
      "inputs": [
        {
          "internalType": "address",
          "name": "owner",
          "type": "address"
        },
        {
          "internalType": "address",
          "name": "operator",
          "type": "address"
        }
      ],
      "name": "isApprovedForAll",
      "outputs": [
        {
          "internalType": "bool",
          "name": "",
          "type": "bool"
        }
      ],
      "stateMutability": "view",
      "type": "function"
    },
    {
      "inputs": [
        {
          "internalType": "uint256",
          "name": "",
          "type": "uint256"
        }
      ],
      "name": "marketItems",
      "outputs": [
        {
          "internalType": "uint256",
          "name": "tokenID",
          "type": "uint256"
        },
        {
          "internalType": "address payable",
          "name": "seller",
          "type": "address"
        },
        {
          "internalType": "uint256",
          "name": "price",
          "type": "uint256"
        }
      ],
      "stateMutability": "view",
      "type": "function"
    },
    {
      "inputs": [],
      "name": "name",
      "outputs": [
        {
          "internalType": "string",
          "name": "",
          "type": "string"
        }
      ],
      "stateMutability": "view",
      "type": "function"
    },
    {
      "inputs": [],
      "name": "owner",
      "outputs": [
        {
          "internalType": "address",
          "name": "",
          "type": "address"
        }
      ],
      "stateMutability": "view",
      "type": "function"
    },
    {
      "inputs": [
        {
          "internalType": "uint256",
          "name": "tokenId",
          "type": "uint256"
        }
      ],
      "name": "ownerOf",
      "outputs": [
        {
          "internalType": "address",
          "name": "",
          "type": "address"
        }
      ],
      "stateMutability": "view",
      "type": "function"
    },
    {
      "inputs": [],
      "name": "renounceOwnership",
      "outputs": [],
      "stateMutability": "nonpayable",
      "type": "function"
    },
    {
      "inputs": [],
      "name": "royaltyFee",
      "outputs": [
        {
          "internalType": "uint256",
          "name": "",
          "type": "uint256"
        }
      ],
      "stateMutability": "view",
      "type": "function"
    },
    {
      "inputs": [
        {
          "internalType": "address",
          "name": "from",
          "type": "address"
        },
        {
          "internalType": "address",
          "name": "to",
          "type": "address"
        },
        {
          "internalType": "uint256",
          "name": "tokenId",
          "type": "uint256"
        }
      ],
      "name": "safeTransferFrom",
      "outputs": [],
      "stateMutability": "nonpayable",
      "type": "function"
    },
    {
      "inputs": [
        {
          "internalType": "address",
          "name": "from",
          "type": "address"
        },
        {
          "internalType": "address",
          "name": "to",
          "type": "address"
        },
        {
          "internalType": "uint256",
          "name": "tokenId",
          "type": "uint256"
        },
        {
          "internalType": "bytes",
          "name": "_data",
          "type": "bytes"
        }
      ],
      "name": "safeTransferFrom",
      "outputs": [],
      "stateMutability": "nonpayable",
      "type": "function"
    },
    {
      "inputs": [
        {
          "internalType": "address",
          "name": "operator",
          "type": "address"
        },
        {
          "internalType": "bool",
          "name": "approved",
          "type": "bool"
        }
      ],
      "name": "setApprovalForAll",
      "outputs": [],
      "stateMutability": "nonpayable",
      "type": "function"
    },
    {
      "inputs": [
        {
          "internalType": "bytes4",
          "name": "interfaceId",
          "type": "bytes4"
        }
      ],
      "name": "supportsInterface",
      "outputs": [
        {
          "internalType": "bool",
          "name": "",
          "type": "bool"
        }
      ],
      "stateMutability": "view",
      "type": "function"
    },
    {
      "inputs": [],
      "name": "symbol",
      "outputs": [
        {
          "internalType": "string",
          "name": "",
          "type": "string"
        }
      ],
      "stateMutability": "view",
      "type": "function"
    },
    {
      "inputs": [
        {
          "internalType": "uint256",
          "name": "tokenId",
          "type": "uint256"
        }
      ],
      "name": "tokenURI",
      "outputs": [
        {
          "internalType": "string",
          "name": "",
          "type": "string"
        }
      ],
      "stateMutability": "view",
      "type": "function"
    },
    {
      "inputs": [
        {
          "internalType": "address",
          "name": "from",
          "type": "address"
        },
        {
          "internalType": "address",
          "name": "to",
          "type": "address"
        },
        {
          "internalType": "uint256",
          "name": "tokenId",
          "type": "uint256"
        }
      ],
      "name": "transferFrom",
      "outputs": [],
      "stateMutability": "nonpayable",
      "type": "function"
    },
    {
      "inputs": [
        {
          "internalType": "address",
          "name": "newOwner",
          "type": "address"
        }
      ],
      "name": "transferOwnership",
      "outputs": [],
      "stateMutability": "nonpayable",
      "type": "function"
    }
  ],
  "bytecode": "0x60806040526040518060800160405280605981526020016200388860599139600790805190602001906200003592919062000711565b506040518060400160405280600581526020017f2e6a736f6e000000000000000000000000000000000000000000000000000000815250600890805190602001906200008392919062000711565b50604051620038e1380380620038e18339818101604052810190620000a9919062000891565b6040518060400160405280600681526020017f44417070466900000000000000000000000000000000000000000000000000008152506040518060400160405280600481526020017f444150500000000000000000000000000000000000000000000000000000000081525081600090805190602001906200012d92919062000711565b5080600190805190602001906200014692919062000711565b505050620001696200015d620003d360201b60201c565b620003db60201b60201c565b3483825162000179919062000aea565b14620001bc576040517f08c379a0000000000000000000000000000000000000000000000000000000008152600401620001b39062000a02565b60405180910390fd5b82600a8190555081600960006101000a81548173ffffffffffffffffffffffffffffffffffffffff021916908373ffffffffffffffffffffffffffffffffffffffff16021790555060005b81518160ff161015620003c9576000828260ff168151811062000253577f4e487b7100000000000000000000000000000000000000000000000000000000600052603260045260246000fd5b6020026020010151116200029e576040517f08c379a00000000000000000000000000000000000000000000000000000000081526004016200029590620009e0565b60405180910390fd5b620002b3308260ff16620004a160201b60201c565b600b60405180606001604052808360ff1681526020013373ffffffffffffffffffffffffffffffffffffffff168152602001848460ff168151811062000322577f4e487b7100000000000000000000000000000000000000000000000000000000600052603260045260246000fd5b602002602001015181525090806001815401808255809150506001900390600052602060002090600302016000909190919091506000820151816000015560208201518160010160006101000a81548173ffffffffffffffffffffffffffffffffffffffff021916908373ffffffffffffffffffffffffffffffffffffffff1602179055506040820151816002015550508080620003c09062000c02565b91505062000207565b5050505062000df3565b600033905090565b6000600660009054906101000a900473ffffffffffffffffffffffffffffffffffffffff16905081600660006101000a81548173ffffffffffffffffffffffffffffffffffffffff021916908373ffffffffffffffffffffffffffffffffffffffff1602179055508173ffffffffffffffffffffffffffffffffffffffff168173ffffffffffffffffffffffffffffffffffffffff167f8be0079c531659141344cd1fd0a4f28419497f9722a3daafe3b4186f6b6457e060405160405180910390a35050565b600073ffffffffffffffffffffffffffffffffffffffff168273ffffffffffffffffffffffffffffffffffffffff16141562000514576040517f08c379a00000000000000000000000000000000000000000000000000000000081526004016200050b90620009be565b60405180910390fd5b62000525816200069b60201b60201c565b1562000568576040517f08c379a00000000000000000000000000000000000000000000000000000000081526004016200055f906200099c565b60405180910390fd5b6200057c600083836200070760201b60201c565b6001600360008473ffffffffffffffffffffffffffffffffffffffff1673ffffffffffffffffffffffffffffffffffffffff1681526020019081526020016000206000828254620005ce919062000a8d565b92505081905550816002600083815260200190815260200160002060006101000a81548173ffffffffffffffffffffffffffffffffffffffff021916908373ffffffffffffffffffffffffffffffffffffffff160217905550808273ffffffffffffffffffffffffffffffffffffffff16600073ffffffffffffffffffffffffffffffffffffffff167fddf252ad1be2c89b69c2b068fc378daa952ba7f163c4a11628f55a4df523b3ef60405160405180910390a462000697600083836200070c60201b60201c565b5050565b60008073ffffffffffffffffffffffffffffffffffffffff166002600084815260200190815260200160002060009054906101000a900473ffffffffffffffffffffffffffffffffffffffff1673ffffffffffffffffffffffffffffffffffffffff1614159050919050565b505050565b505050565b8280546200071f9062000b96565b90600052602060002090601f0160209004810192826200074357600085556200078f565b82601f106200075e57805160ff19168380011785556200078f565b828001600101855582156200078f579182015b828111156200078e57825182559160200191906001019062000771565b5b5090506200079e9190620007a2565b5090565b5b80821115620007bd576000816000905550600101620007a3565b5090565b6000620007d8620007d28462000a4d565b62000a24565b90508083825260208201905082856020860282011115620007f857600080fd5b60005b858110156200082c57816200081188826200087a565b845260208401935060208301925050600181019050620007fb565b5050509392505050565b600081519050620008478162000dbf565b92915050565b600082601f8301126200085f57600080fd5b815162000871848260208601620007c1565b91505092915050565b6000815190506200088b8162000dd9565b92915050565b600080600060608486031215620008a757600080fd5b6000620008b7868287016200087a565b9350506020620008ca8682870162000836565b925050604084015167ffffffffffffffff811115620008e857600080fd5b620008f6868287016200084d565b9150509250925092565b60006200090f601c8362000a7c565b91506200091c8262000ccf565b602082019050919050565b60006200093660208362000a7c565b9150620009438262000cf8565b602082019050919050565b60006200095d601c8362000a7c565b91506200096a8262000d21565b602082019050919050565b60006200098460478362000a7c565b9150620009918262000d4a565b606082019050919050565b60006020820190508181036000830152620009b78162000900565b9050919050565b60006020820190508181036000830152620009d98162000927565b9050919050565b60006020820190508181036000830152620009fb816200094e565b9050919050565b6000602082019050818103600083015262000a1d8162000975565b9050919050565b600062000a3062000a43565b905062000a3e828262000bcc565b919050565b6000604051905090565b600067ffffffffffffffff82111562000a6b5762000a6a62000c8f565b5b602082029050602081019050919050565b600082825260208201905092915050565b600062000a9a8262000b7f565b915062000aa78362000b7f565b9250827fffffffffffffffffffffffffffffffffffffffffffffffffffffffffffffffff0382111562000adf5762000ade62000c31565b5b828201905092915050565b600062000af78262000b7f565b915062000b048362000b7f565b9250817fffffffffffffffffffffffffffffffffffffffffffffffffffffffffffffffff048311821515161562000b405762000b3f62000c31565b5b828202905092915050565b600062000b588262000b5f565b9050919050565b600073ffffffffffffffffffffffffffffffffffffffff82169050919050565b6000819050919050565b600060ff82169050919050565b6000600282049050600182168062000baf57607f821691505b6020821081141562000bc65762000bc562000c60565b5b50919050565b62000bd78262000cbe565b810181811067ffffffffffffffff8211171562000bf95762000bf862000c8f565b5b80604052505050565b600062000c0f8262000b89565b915060ff82141562000c265762000c2562000c31565b5b600182019050919050565b7f4e487b7100000000000000000000000000000000000000000000000000000000600052601160045260246000fd5b7f4e487b7100000000000000000000000000000000000000000000000000000000600052602260045260246000fd5b7f4e487b7100000000000000000000000000000000000000000000000000000000600052604160045260246000fd5b6000601f19601f8301169050919050565b7f4552433732313a20746f6b656e20616c7265616479206d696e74656400000000600082015250565b7f4552433732313a206d696e7420746f20746865207a65726f2061646472657373600082015250565b7f5072696365204d7573742062652067726561746572207468616e203000000000600082015250565b7f446576656c6f706572206d7573742070617920526f79616c747920666565206660008201527f6f72206561636820746f6b656e206c6973746564206f6e20746865206d61726b60208201527f6574706c61636500000000000000000000000000000000000000000000000000604082015250565b62000dca8162000b4b565b811462000dd657600080fd5b50565b62000de48162000b7f565b811462000df057600080fd5b50565b612a858062000e036000396000f3fe608060405234801561001057600080fd5b50600436106101375760003560e01c806370a08231116100b8578063b88d4fde1161007c578063b88d4fde1461033e578063b8997a971461035a578063c668286214610378578063c87b56dd14610396578063e985e9c5146103c6578063f2fde38b146103f657610137565b806370a08231146102ac578063715018a6146102dc5780638da5cb5b146102e657806395d89b4114610304578063a22cb4651461032257610137565b806342842e0e116100ff57806342842e0e146101f257806343bc16121461020e57806351f28e141461022c5780636352211e1461025e5780636c0360eb1461028e57610137565b806301ffc9a71461013c57806306fdde031461016c578063081812fc1461018a578063095ea7b3146101ba57806323b872dd146101d6575b600080fd5b61015660048036038101906101519190611c09565b610412565b6040516101639190611fd8565b60405180910390f35b6101746104f4565b6040516101819190611ff3565b60405180910390f35b6101a4600480360381019061019f9190611c5b565b610586565b6040516101b19190611f71565b60405180910390f35b6101d460048036038101906101cf9190611bcd565b61060b565b005b6101f060048036038101906101eb9190611ac7565b610723565b005b61020c60048036038101906102079190611ac7565b610783565b005b6102166107a3565b6040516102239190611f71565b60405180910390f35b61024660048036038101906102419190611c5b565b6107c9565b604051610255939291906121f0565b60405180910390f35b61027860048036038101906102739190611c5b565b610823565b6040516102859190611f71565b60405180910390f35b6102966108d5565b6040516102a39190611ff3565b60405180910390f35b6102c660048036038101906102c19190611a62565b610963565b6040516102d391906121d5565b60405180910390f35b6102e4610a1b565b005b6102ee610aa3565b6040516102fb9190611f71565b60405180910390f35b61030c610acd565b6040516103199190611ff3565b60405180910390f35b61033c60048036038101906103379190611b91565b610b5f565b005b61035860048036038101906103539190611b16565b610b75565b005b610362610bd7565b60405161036f91906121d5565b60405180910390f35b610380610bdd565b60405161038d9190611ff3565b60405180910390f35b6103b060048036038101906103ab9190611c5b565b610c6b565b6040516103bd9190611ff3565b60405180910390f35b6103e060048036038101906103db9190611a8b565b610d12565b6040516103ed9190611fd8565b60405180910390f35b610410600480360381019061040b9190611a62565b610da6565b005b60007f80ac58cd000000000000000000000000000000000000000000000000000000007bffffffffffffffffffffffffffffffffffffffffffffffffffffffff1916827bffffffffffffffffffffffffffffffffffffffffffffffffffffffff191614806104dd57507f5b5e139f000000000000000000000000000000000000000000000000000000007bffffffffffffffffffffffffffffffffffffffffffffffffffffffff1916827bffffffffffffffffffffffffffffffffffffffffffffffffffffffff1916145b806104ed57506104ec82610e9e565b5b9050919050565b60606000805461050390612443565b80601f016020809104026020016040519081016040528092919081815260200182805461052f90612443565b801561057c5780601f106105515761010080835404028352916020019161057c565b820191906000526020600020905b81548152906001019060200180831161055f57829003601f168201915b5050505050905090565b600061059182610f08565b6105d0576040517f08c379a00000000000000000000000000000000000000000000000000000000081526004016105c790612135565b60405180910390fd5b6004600083815260200190815260200160002060009054906101000a900473ffffffffffffffffffffffffffffffffffffffff169050919050565b600061061682610823565b90508073ffffffffffffffffffffffffffffffffffffffff168373ffffffffffffffffffffffffffffffffffffffff161415610687576040517f08c379a000000000000000000000000000000000000000000000000000000000815260040161067e90612195565b60405180910390fd5b8073ffffffffffffffffffffffffffffffffffffffff166106a6610f74565b73ffffffffffffffffffffffffffffffffffffffff1614806106d557506106d4816106cf610f74565b610d12565b5b610714576040517f08c379a000000000000000000000000000000000000000000000000000000000815260040161070b906120d5565b60405180910390fd5b61071e8383610f7c565b505050565b61073461072e610f74565b82611035565b610773576040517f08c379a000000000000000000000000000000000000000000000000000000000815260040161076a906121b5565b60405180910390fd5b61077e838383611113565b505050565b61079e83838360405180602001604052806000815250610b75565b505050565b600960009054906101000a900473ffffffffffffffffffffffffffffffffffffffff1681565b600b81815481106107d957600080fd5b90600052602060002090600302016000915090508060000154908060010160009054906101000a900473ffffffffffffffffffffffffffffffffffffffff16908060020154905083565b6000806002600084815260200190815260200160002060009054906101000a900473ffffffffffffffffffffffffffffffffffffffff169050600073ffffffffffffffffffffffffffffffffffffffff168173ffffffffffffffffffffffffffffffffffffffff1614156108cc576040517f08c379a00000000000000000000000000000000000000000000000000000000081526004016108c390612115565b60405180910390fd5b80915050919050565b600780546108e290612443565b80601f016020809104026020016040519081016040528092919081815260200182805461090e90612443565b801561095b5780601f106109305761010080835404028352916020019161095b565b820191906000526020600020905b81548152906001019060200180831161093e57829003601f168201915b505050505081565b60008073ffffffffffffffffffffffffffffffffffffffff168273ffffffffffffffffffffffffffffffffffffffff1614156109d4576040517f08c379a00000000000000000000000000000000000000000000000000000000081526004016109cb906120f5565b60405180910390fd5b600360008373ffffffffffffffffffffffffffffffffffffffff1673ffffffffffffffffffffffffffffffffffffffff168152602001908152602001600020549050919050565b610a23610f74565b73ffffffffffffffffffffffffffffffffffffffff16610a41610aa3565b73ffffffffffffffffffffffffffffffffffffffff1614610a97576040517f08c379a0000000000000000000000000000000000000000000000000000000008152600401610a8e90612155565b60405180910390fd5b610aa1600061137a565b565b6000600660009054906101000a900473ffffffffffffffffffffffffffffffffffffffff16905090565b606060018054610adc90612443565b80601f0160208091040260200160405190810160405280929190818152602001828054610b0890612443565b8015610b555780601f10610b2a57610100808354040283529160200191610b55565b820191906000526020600020905b815481529060010190602001808311610b3857829003601f168201915b5050505050905090565b610b71610b6a610f74565b8383611440565b5050565b610b86610b80610f74565b83611035565b610bc5576040517f08c379a0000000000000000000000000000000000000000000000000000000008152600401610bbc906121b5565b60405180910390fd5b610bd1848484846115ad565b50505050565b600a5481565b60088054610bea90612443565b80601f0160208091040260200160405190810160405280929190818152602001828054610c1690612443565b8015610c635780601f10610c3857610100808354040283529160200191610c63565b820191906000526020600020905b815481529060010190602001808311610c4657829003601f168201915b505050505081565b6060610c7682610f08565b610cb5576040517f08c379a0000000000000000000000000000000000000000000000000000000008152600401610cac90612175565b60405180910390fd5b6000610cbf611609565b90506000815111610cdf5760405180602001604052806000815250610d0a565b80610ce984611620565b604051602001610cfa929190611f4d565b6040516020818303038152906040525b915050919050565b6000600560008473ffffffffffffffffffffffffffffffffffffffff1673ffffffffffffffffffffffffffffffffffffffff16815260200190815260200160002060008373ffffffffffffffffffffffffffffffffffffffff1673ffffffffffffffffffffffffffffffffffffffff16815260200190815260200160002060009054906101000a900460ff16905092915050565b610dae610f74565b73ffffffffffffffffffffffffffffffffffffffff16610dcc610aa3565b73ffffffffffffffffffffffffffffffffffffffff1614610e22576040517f08c379a0000000000000000000000000000000000000000000000000000000008152600401610e1990612155565b60405180910390fd5b600073ffffffffffffffffffffffffffffffffffffffff168173ffffffffffffffffffffffffffffffffffffffff161415610e92576040517f08c379a0000000000000000000000000000000000000000000000000000000008152600401610e8990612035565b60405180910390fd5b610e9b8161137a565b50565b60007f01ffc9a7000000000000000000000000000000000000000000000000000000007bffffffffffffffffffffffffffffffffffffffffffffffffffffffff1916827bffffffffffffffffffffffffffffffffffffffffffffffffffffffff1916149050919050565b60008073ffffffffffffffffffffffffffffffffffffffff166002600084815260200190815260200160002060009054906101000a900473ffffffffffffffffffffffffffffffffffffffff1673ffffffffffffffffffffffffffffffffffffffff1614159050919050565b600033905090565b816004600083815260200190815260200160002060006101000a81548173ffffffffffffffffffffffffffffffffffffffff021916908373ffffffffffffffffffffffffffffffffffffffff160217905550808273ffffffffffffffffffffffffffffffffffffffff16610fef83610823565b73ffffffffffffffffffffffffffffffffffffffff167f8c5be1e5ebec7d5bd14f71427d1e84f3dd0314c0f7b2291e5b200ac8c7c3b92560405160405180910390a45050565b600061104082610f08565b61107f576040517f08c379a0000000000000000000000000000000000000000000000000000000008152600401611076906120b5565b60405180910390fd5b600061108a83610823565b90508073ffffffffffffffffffffffffffffffffffffffff168473ffffffffffffffffffffffffffffffffffffffff1614806110f957508373ffffffffffffffffffffffffffffffffffffffff166110e184610586565b73ffffffffffffffffffffffffffffffffffffffff16145b8061110a57506111098185610d12565b5b91505092915050565b8273ffffffffffffffffffffffffffffffffffffffff1661113382610823565b73ffffffffffffffffffffffffffffffffffffffff1614611189576040517f08c379a000000000000000000000000000000000000000000000000000000000815260040161118090612055565b60405180910390fd5b600073ffffffffffffffffffffffffffffffffffffffff168273ffffffffffffffffffffffffffffffffffffffff1614156111f9576040517f08c379a00000000000000000000000000000000000000000000000000000000081526004016111f090612075565b60405180910390fd5b6112048383836117cd565b61120f600082610f7c565b6001600360008573ffffffffffffffffffffffffffffffffffffffff1673ffffffffffffffffffffffffffffffffffffffff168152602001908152602001600020600082825461125f9190612347565b925050819055506001600360008473ffffffffffffffffffffffffffffffffffffffff1673ffffffffffffffffffffffffffffffffffffffff16815260200190815260200160002060008282546112b691906122c0565b92505081905550816002600083815260200190815260200160002060006101000a81548173ffffffffffffffffffffffffffffffffffffffff021916908373ffffffffffffffffffffffffffffffffffffffff160217905550808273ffffffffffffffffffffffffffffffffffffffff168473ffffffffffffffffffffffffffffffffffffffff167fddf252ad1be2c89b69c2b068fc378daa952ba7f163c4a11628f55a4df523b3ef60405160405180910390a46113758383836117d2565b505050565b6000600660009054906101000a900473ffffffffffffffffffffffffffffffffffffffff16905081600660006101000a81548173ffffffffffffffffffffffffffffffffffffffff021916908373ffffffffffffffffffffffffffffffffffffffff1602179055508173ffffffffffffffffffffffffffffffffffffffff168173ffffffffffffffffffffffffffffffffffffffff167f8be0079c531659141344cd1fd0a4f28419497f9722a3daafe3b4186f6b6457e060405160405180910390a35050565b8173ffffffffffffffffffffffffffffffffffffffff168373ffffffffffffffffffffffffffffffffffffffff1614156114af576040517f08c379a00000000000000000000000000000000000000000000000000000000081526004016114a690612095565b60405180910390fd5b80600560008573ffffffffffffffffffffffffffffffffffffffff1673ffffffffffffffffffffffffffffffffffffffff16815260200190815260200160002060008473ffffffffffffffffffffffffffffffffffffffff1673ffffffffffffffffffffffffffffffffffffffff16815260200190815260200160002060006101000a81548160ff0219169083151502179055508173ffffffffffffffffffffffffffffffffffffffff168373ffffffffffffffffffffffffffffffffffffffff167f17307eab39ab6107e8899845ad3d59bd9653f200f220920489ca2b5937696c31836040516115a09190611fd8565b60405180910390a3505050565b6115b8848484611113565b6115c4848484846117d7565b611603576040517f08c379a00000000000000000000000000000000000000000000000000000000081526004016115fa90612015565b60405180910390fd5b50505050565b606060405180602001604052806000815250905090565b60606000821415611668576040518060400160405280600181526020017f300000000000000000000000000000000000000000000000000000000000000081525090506117c8565b600082905060005b6000821461169a578080611683906124a6565b915050600a826116939190612316565b9150611670565b60008167ffffffffffffffff8111156116dc577f4e487b7100000000000000000000000000000000000000000000000000000000600052604160045260246000fd5b6040519080825280601f01601f19166020018201604052801561170e5781602001600182028036833780820191505090505b5090505b600085146117c1576001826117279190612347565b9150600a8561173691906124ef565b603061174291906122c0565b60f81b81838151811061177e577f4e487b7100000000000000000000000000000000000000000000000000000000600052603260045260246000fd5b60200101907effffffffffffffffffffffffffffffffffffffffffffffffffffffffffffff1916908160001a905350600a856117ba9190612316565b9450611712565b8093505050505b919050565b505050565b505050565b60006117f88473ffffffffffffffffffffffffffffffffffffffff1661196e565b15611961578373ffffffffffffffffffffffffffffffffffffffff1663150b7a02611821610f74565b8786866040518563ffffffff1660e01b81526004016118439493929190611f8c565b602060405180830381600087803b15801561185d57600080fd5b505af192505050801561188e57506040513d601f19601f8201168201806040525081019061188b9190611c32565b60015b611911573d80600081146118be576040519150601f19603f3d011682016040523d82523d6000602084013e6118c3565b606091505b50600081511415611909576040517f08c379a000000000000000000000000000000000000000000000000000000000815260040161190090612015565b60405180910390fd5b805181602001fd5b63150b7a0260e01b7bffffffffffffffffffffffffffffffffffffffffffffffffffffffff1916817bffffffffffffffffffffffffffffffffffffffffffffffffffffffff191614915050611966565b600190505b949350505050565b6000808273ffffffffffffffffffffffffffffffffffffffff163b119050919050565b60006119a461199f8461224c565b612227565b9050828152602081018484840111156119bc57600080fd5b6119c7848285612401565b509392505050565b6000813590506119de816129f3565b92915050565b6000813590506119f381612a0a565b92915050565b600081359050611a0881612a21565b92915050565b600081519050611a1d81612a21565b92915050565b600082601f830112611a3457600080fd5b8135611a44848260208601611991565b91505092915050565b600081359050611a5c81612a38565b92915050565b600060208284031215611a7457600080fd5b6000611a82848285016119cf565b91505092915050565b60008060408385031215611a9e57600080fd5b6000611aac858286016119cf565b9250506020611abd858286016119cf565b9150509250929050565b600080600060608486031215611adc57600080fd5b6000611aea868287016119cf565b9350506020611afb868287016119cf565b9250506040611b0c86828701611a4d565b9150509250925092565b60008060008060808587031215611b2c57600080fd5b6000611b3a878288016119cf565b9450506020611b4b878288016119cf565b9350506040611b5c87828801611a4d565b925050606085013567ffffffffffffffff811115611b7957600080fd5b611b8587828801611a23565b91505092959194509250565b60008060408385031215611ba457600080fd5b6000611bb2858286016119cf565b9250506020611bc3858286016119e4565b9150509250929050565b60008060408385031215611be057600080fd5b6000611bee858286016119cf565b9250506020611bff85828601611a4d565b9150509250929050565b600060208284031215611c1b57600080fd5b6000611c29848285016119f9565b91505092915050565b600060208284031215611c4457600080fd5b6000611c5284828501611a0e565b91505092915050565b600060208284031215611c6d57600080fd5b6000611c7b84828501611a4d565b91505092915050565b611c8d8161238d565b82525050565b611c9c8161237b565b82525050565b611cab8161239f565b82525050565b6000611cbc8261227d565b611cc68185612293565b9350611cd6818560208601612410565b611cdf816125dc565b840191505092915050565b6000611cf582612288565b611cff81856122a4565b9350611d0f818560208601612410565b611d18816125dc565b840191505092915050565b6000611d2e82612288565b611d3881856122b5565b9350611d48818560208601612410565b80840191505092915050565b6000611d616032836122a4565b9150611d6c826125ed565b604082019050919050565b6000611d846026836122a4565b9150611d8f8261263c565b604082019050919050565b6000611da76025836122a4565b9150611db28261268b565b604082019050919050565b6000611dca6024836122a4565b9150611dd5826126da565b604082019050919050565b6000611ded6019836122a4565b9150611df882612729565b602082019050919050565b6000611e10602c836122a4565b9150611e1b82612752565b604082019050919050565b6000611e336038836122a4565b9150611e3e826127a1565b604082019050919050565b6000611e56602a836122a4565b9150611e61826127f0565b604082019050919050565b6000611e796029836122a4565b9150611e848261283f565b604082019050919050565b6000611e9c602c836122a4565b9150611ea78261288e565b604082019050919050565b6000611ebf6020836122a4565b9150611eca826128dd565b602082019050919050565b6000611ee2602f836122a4565b9150611eed82612906565b604082019050919050565b6000611f056021836122a4565b9150611f1082612955565b604082019050919050565b6000611f286031836122a4565b9150611f33826129a4565b604082019050919050565b611f47816123f7565b82525050565b6000611f598285611d23565b9150611f658284611d23565b91508190509392505050565b6000602082019050611f866000830184611c93565b92915050565b6000608082019050611fa16000830187611c93565b611fae6020830186611c93565b611fbb6040830185611f3e565b8181036060830152611fcd8184611cb1565b905095945050505050565b6000602082019050611fed6000830184611ca2565b92915050565b6000602082019050818103600083015261200d8184611cea565b905092915050565b6000602082019050818103600083015261202e81611d54565b9050919050565b6000602082019050818103600083015261204e81611d77565b9050919050565b6000602082019050818103600083015261206e81611d9a565b9050919050565b6000602082019050818103600083015261208e81611dbd565b9050919050565b600060208201905081810360008301526120ae81611de0565b9050919050565b600060208201905081810360008301526120ce81611e03565b9050919050565b600060208201905081810360008301526120ee81611e26565b9050919050565b6000602082019050818103600083015261210e81611e49565b9050919050565b6000602082019050818103600083015261212e81611e6c565b9050919050565b6000602082019050818103600083015261214e81611e8f565b9050919050565b6000602082019050818103600083015261216e81611eb2565b9050919050565b6000602082019050818103600083015261218e81611ed5565b9050919050565b600060208201905081810360008301526121ae81611ef8565b9050919050565b600060208201905081810360008301526121ce81611f1b565b9050919050565b60006020820190506121ea6000830184611f3e565b92915050565b60006060820190506122056000830186611f3e565b6122126020830185611c84565b61221f6040830184611f3e565b949350505050565b6000612231612242565b905061223d8282612475565b919050565b6000604051905090565b600067ffffffffffffffff821115612267576122666125ad565b5b612270826125dc565b9050602081019050919050565b600081519050919050565b600081519050919050565b600082825260208201905092915050565b600082825260208201905092915050565b600081905092915050565b60006122cb826123f7565b91506122d6836123f7565b9250827fffffffffffffffffffffffffffffffffffffffffffffffffffffffffffffffff0382111561230b5761230a612520565b5b828201905092915050565b6000612321826123f7565b915061232c836123f7565b92508261233c5761233b61254f565b5b828204905092915050565b6000612352826123f7565b915061235d836123f7565b9250828210156123705761236f612520565b5b828203905092915050565b6000612386826123d7565b9050919050565b6000612398826123d7565b9050919050565b60008115159050919050565b60007fffffffff0000000000000000000000000000000000000000000000000000000082169050919050565b600073ffffffffffffffffffffffffffffffffffffffff82169050919050565b6000819050919050565b82818337600083830152505050565b60005b8381101561242e578082015181840152602081019050612413565b8381111561243d576000848401525b50505050565b6000600282049050600182168061245b57607f821691505b6020821081141561246f5761246e61257e565b5b50919050565b61247e826125dc565b810181811067ffffffffffffffff8211171561249d5761249c6125ad565b5b80604052505050565b60006124b1826123f7565b91507fffffffffffffffffffffffffffffffffffffffffffffffffffffffffffffffff8214156124e4576124e3612520565b5b600182019050919050565b60006124fa826123f7565b9150612505836123f7565b9250826125155761251461254f565b5b828206905092915050565b7f4e487b7100000000000000000000000000000000000000000000000000000000600052601160045260246000fd5b7f4e487b7100000000000000000000000000000000000000000000000000000000600052601260045260246000fd5b7f4e487b7100000000000000000000000000000000000000000000000000000000600052602260045260246000fd5b7f4e487b7100000000000000000000000000000000000000000000000000000000600052604160045260246000fd5b6000601f19601f8301169050919050565b7f4552433732313a207472616e7366657220746f206e6f6e20455243373231526560008201527f63656976657220696d706c656d656e7465720000000000000000000000000000602082015250565b7f4f776e61626c653a206e6577206f776e657220697320746865207a65726f206160008201527f6464726573730000000000000000000000000000000000000000000000000000602082015250565b7f4552433732313a207472616e736665722066726f6d20696e636f72726563742060008201527f6f776e6572000000000000000000000000000000000000000000000000000000602082015250565b7f4552433732313a207472616e7366657220746f20746865207a65726f2061646460008201527f7265737300000000000000000000000000000000000000000000000000000000602082015250565b7f4552433732313a20617070726f766520746f2063616c6c657200000000000000600082015250565b7f4552433732313a206f70657261746f7220717565727920666f72206e6f6e657860008201527f697374656e7420746f6b656e0000000000000000000000000000000000000000602082015250565b7f4552433732313a20617070726f76652063616c6c6572206973206e6f74206f7760008201527f6e6572206e6f7220617070726f76656420666f7220616c6c0000000000000000602082015250565b7f4552433732313a2062616c616e636520717565727920666f7220746865207a6560008201527f726f206164647265737300000000000000000000000000000000000000000000602082015250565b7f4552433732313a206f776e657220717565727920666f72206e6f6e657869737460008201527f656e7420746f6b656e0000000000000000000000000000000000000000000000602082015250565b7f4552433732313a20617070726f76656420717565727920666f72206e6f6e657860008201527f697374656e7420746f6b656e0000000000000000000000000000000000000000602082015250565b7f4f776e61626c653a2063616c6c6572206973206e6f7420746865206f776e6572600082015250565b7f4552433732314d657461646174613a2055524920717565727920666f72206e6f60008201527f6e6578697374656e7420746f6b656e0000000000000000000000000000000000602082015250565b7f4552433732313a20617070726f76616c20746f2063757272656e74206f776e6560008201527f7200000000000000000000000000000000000000000000000000000000000000602082015250565b7f4552433732313a207472616e736665722063616c6c6572206973206e6f74206f60008201527f776e6572206e6f7220617070726f766564000000000000000000000000000000602082015250565b6129fc8161237b565b8114612a0757600080fd5b50565b612a138161239f565b8114612a1e57600080fd5b50565b612a2a816123ab565b8114612a3557600080fd5b50565b612a41816123f7565b8114612a4c57600080fd5b5056fea2646970667358221220b7708a362f2199ff4aedee33241145201a0935e554231f4ac46441dcdd2ad9b864736f6c6343000804003368747470733a2f2f62616679626569617a7234756468696b69757768766378716f61646935356e737066737579783664616c36376335666c74796e6f69657332716f6d2e697066732e6e667473746f726167652e6c696e6b2f",
  "linkReferences": {},
  "deployedLinkReferences": {}
}